{
  "transactions": [
    {
      "hash": "0xbd243c9316fb242cff03f7cc954cd091ddd4cc1ad91456addfb29b0a3bb5191d",
      "transactionType": "CALL",
      "contractName": null,
      "contractAddress": "0xcbb50dc59f9a67e99dd216651accaedba56ee625",
      "function": "mint(address,uint256)",
      "arguments": [
        "0xE5fE3784dEe65A9438963E5c37AEB6D114604de0",
        "1000000000000000000000"
      ],
      "transaction": {
        "from": "0xe5fe3784dee65a9438963e5c37aeb6d114604de0",
        "to": "0xcbb50dc59f9a67e99dd216651accaedba56ee625",
        "gas": "0xbb68",
        "value": "0x0",
        "input": "0x40c10f19000000000000000000000000e5fe3784dee65a9438963e5c37aeb6d114604de000000000000000000000000000000000000000000000003635c9adc5dea00000",
        "nonce": "0x54",
        "chainId": "0xaa36a7"
      },
      "additionalContracts": [],
      "isFixedGasLimit": false
    },
    {
      "hash": "0x3254c7e2bb4684dacd93a574db0ab1bb9bc5a5a593e70a52f10472a446a875ff",
      "transactionType": "CALL",
      "contractName": null,
      "contractAddress": "0xb7f9c55c8789107b52f400bcdb151a562f355977",
      "function": "mint(address,uint256)",
      "arguments": [
        "0xE5fE3784dEe65A9438963E5c37AEB6D114604de0",
        "1000000000000000000000"
      ],
      "transaction": {
        "from": "0xe5fe3784dee65a9438963e5c37aeb6d114604de0",
        "to": "0xb7f9c55c8789107b52f400bcdb151a562f355977",
        "gas": "0xbb68",
        "value": "0x0",
        "input": "0x40c10f19000000000000000000000000e5fe3784dee65a9438963e5c37aeb6d114604de000000000000000000000000000000000000000000000003635c9adc5dea00000",
        "nonce": "0x55",
        "chainId": "0xaa36a7"
      },
      "additionalContracts": [],
      "isFixedGasLimit": false
    },
    {
      "hash": "0x59bad2226e0ea3c55141d5ea17a5335a54915302b50db8d6215e515f2d0b4f91",
      "transactionType": "CALL",
      "contractName": null,
      "contractAddress": "0xcbb50dc59f9a67e99dd216651accaedba56ee625",
      "function": "approve(address,uint256)",
      "arguments": [
        "0x9FdC0123B336F5714891aFd344Cb8085b527AEc7",
        "115792089237316195423570985008687907853269984665640564039457584007913129639935"
      ],
      "transaction": {
        "from": "0xe5fe3784dee65a9438963e5c37aeb6d114604de0",
        "to": "0xcbb50dc59f9a67e99dd216651accaedba56ee625",
        "gas": "0xfee1",
        "value": "0x0",
        "input": "0x095ea7b30000000000000000000000009fdc0123b336f5714891afd344cb8085b527aec7ffffffffffffffffffffffffffffffffffffffffffffffffffffffffffffffff",
        "nonce": "0x56",
        "chainId": "0xaa36a7"
      },
      "additionalContracts": [],
      "isFixedGasLimit": false
    },
    {
      "hash": "0x611d60fc6cd95f9f085d9377b11460c5409e6fa5bcb9daaf6679cdf4c3e952e3",
      "transactionType": "CALL",
      "contractName": null,
      "contractAddress": "0xb7f9c55c8789107b52f400bcdb151a562f355977",
      "function": "approve(address,uint256)",
      "arguments": [
        "0x9FdC0123B336F5714891aFd344Cb8085b527AEc7",
        "115792089237316195423570985008687907853269984665640564039457584007913129639935"
      ],
      "transaction": {
        "from": "0xe5fe3784dee65a9438963e5c37aeb6d114604de0",
        "to": "0xb7f9c55c8789107b52f400bcdb151a562f355977",
        "gas": "0xfee1",
        "value": "0x0",
        "input": "0x095ea7b30000000000000000000000009fdc0123b336f5714891afd344cb8085b527aec7ffffffffffffffffffffffffffffffffffffffffffffffffffffffffffffffff",
        "nonce": "0x57",
        "chainId": "0xaa36a7"
      },
      "additionalContracts": [],
      "isFixedGasLimit": false
    },
    {
      "hash": "0x480214bcad3452f795da8ae1000710aa5fd82cc47d5608df56afc380567cb5dd",
      "transactionType": "CALL",
      "contractName": null,
      "contractAddress": "0x9fdc0123b336f5714891afd344cb8085b527aec7",
      "function": "mint(address,int24,int24,uint128,bytes)",
      "arguments": [
        "0x85d73cB02F603E48B3d4007c7DC3b80923f35312",
        "-887220",
        "887220",
        "100000000000000000000",
        "0x000000000000000000000000cbb50dc59f9a67e99dd216651accaedba56ee625000000000000000000000000b7f9c55c8789107b52f400bcdb151a562f355977000000000000000000000000e5fe3784dee65a9438963e5c37aeb6d114604de0"
      ],
      "transaction": {
        "from": "0xe5fe3784dee65a9438963e5c37aeb6d114604de0",
        "to": "0x9fdc0123b336f5714891afd344cb8085b527aec7",
        "gas": "0x5a48f",
        "value": "0x0",
        "input": "0x3c8a7d8d00000000000000000000000085d73cb02f603e48b3d4007c7dc3b80923f35312fffffffffffffffffffffffffffffffffffffffffffffffffffffffffff2764c00000000000000000000000000000000000000000000000000000000000d89b40000000000000000000000000000000000000000000000056bc75e2d6310000000000000000000000000000000000000000000000000000000000000000000a00000000000000000000000000000000000000000000000000000000000000060000000000000000000000000cbb50dc59f9a67e99dd216651accaedba56ee625000000000000000000000000b7f9c55c8789107b52f400bcdb151a562f355977000000000000000000000000e5fe3784dee65a9438963e5c37aeb6d114604de0",
        "nonce": "0x58",
        "chainId": "0xaa36a7"
      },
      "additionalContracts": [],
      "isFixedGasLimit": false
    }
  ],
  "receipts": [
    {
      "status": "0x1",
      "cumulativeGasUsed": "0x80cf14",
      "logs": [
        {
          "address": "0xcbb50dc59f9a67e99dd216651accaedba56ee625",
          "topics": [
            "0xddf252ad1be2c89b69c2b068fc378daa952ba7f163c4a11628f55a4df523b3ef",
            "0x0000000000000000000000000000000000000000000000000000000000000000",
            "0x000000000000000000000000e5fe3784dee65a9438963e5c37aeb6d114604de0"
          ],
          "data": "0x00000000000000000000000000000000000000000000003635c9adc5dea00000",
          "blockHash": "0xc6bc06026edf1acce1ee28000f4e610c080211deb4419b9c4f82db94315d523e",
          "blockNumber": "0x9f6710",
          "blockTimestamp": "0x69b59f44",
          "transactionHash": "0xbd243c9316fb242cff03f7cc954cd091ddd4cc1ad91456addfb29b0a3bb5191d",
          "transactionIndex": "0x50",
          "logIndex": "0xa3",
          "removed": false
        }
      ],
      "logsBloom": "0x00000000000000000000000000040000000000000002000000000000000000000000000000000000000000000000000000000000000000000000000000000000000000000000000000000008000000000000000000000000001000000000000000000000020000000000000000000800000000000000000000000010000000000000000000000000000000000000800000000000000000000000000000000000000000000000000000080000000000000000000000000000000000000000000000000002000000000000000000000000000000000000000000000000000020000000010000000000000000000000000000000000000000000000000000000000",
      "type": "0x0",
      "transactionHash": "0xbd243c9316fb242cff03f7cc954cd091ddd4cc1ad91456addfb29b0a3bb5191d",
      "transactionIndex": "0x50",
      "blockHash": "0xc6bc06026edf1acce1ee28000f4e610c080211deb4419b9c4f82db94315d523e",
      "blockNumber": "0x9f6710",
      "gasUsed": "0x87af",
      "effectiveGasPrice": "0xf4249",
      "from": "0xe5fe3784dee65a9438963e5c37aeb6d114604de0",
      "to": "0xcbb50dc59f9a67e99dd216651accaedba56ee625",
      "contractAddress": null
    },
    {
      "status": "0x1",
      "cumulativeGasUsed": "0x932611",
      "logs": [
        {
          "address": "0xb7f9c55c8789107b52f400bcdb151a562f355977",
          "topics": [
            "0xddf252ad1be2c89b69c2b068fc378daa952ba7f163c4a11628f55a4df523b3ef",
            "0x0000000000000000000000000000000000000000000000000000000000000000",
            "0x000000000000000000000000e5fe3784dee65a9438963e5c37aeb6d114604de0"
          ],
          "data": "0x00000000000000000000000000000000000000000000003635c9adc5dea00000",
          "blockHash": "0x86e0fdd9f80e0651247949233ddf7e00c96e3df2be672fb1db085d65696a22ad",
          "blockNumber": "0x9f6711",
          "blockTimestamp": "0x69b59f50",
          "transactionHash": "0x3254c7e2bb4684dacd93a574db0ab1bb9bc5a5a593e70a52f10472a446a875ff",
          "transactionIndex": "0x37",
          "logIndex": "0x70",
          "removed": false
        }
      ],
      "logsBloom": "0x00000000000000000000000000000000000000000002000000000000000000000000000000000000000000000000000000000000000000000000000000000000000000000000000000000008000000000000000000000000000000000000000000000000020000000000000000000800000000000000000000000010000000000000000000000000000000000010000000000000000000001000000000000000000000000000000000080000000000000000000000000000000000000000000000000002000000000000000000000000000000000080000000000000000020000000010000000000000000000000000000000000000000000000000000000000",
      "type": "0x0",
      "transactionHash": "0x3254c7e2bb4684dacd93a574db0ab1bb9bc5a5a593e70a52f10472a446a875ff",
      "transactionIndex": "0x37",
      "blockHash": "0x86e0fdd9f80e0651247949233ddf7e00c96e3df2be672fb1db085d65696a22ad",
      "blockNumber": "0x9f6711",
      "gasUsed": "0x87af",
      "effectiveGasPrice": "0xf4249",
      "from": "0xe5fe3784dee65a9438963e5c37aeb6d114604de0",
      "to": "0xb7f9c55c8789107b52f400bcdb151a562f355977",
      "contractAddress": null
    },
    {
      "status": "0x1",
      "cumulativeGasUsed": "0x17a7649",
      "logs": [
        {
          "address": "0xcbb50dc59f9a67e99dd216651accaedba56ee625",
          "topics": [
            "0x8c5be1e5ebec7d5bd14f71427d1e84f3dd0314c0f7b2291e5b200ac8c7c3b925",
            "0x000000000000000000000000e5fe3784dee65a9438963e5c37aeb6d114604de0",
            "0x0000000000000000000000009fdc0123b336f5714891afd344cb8085b527aec7"
          ],
          "data": "0xffffffffffffffffffffffffffffffffffffffffffffffffffffffffffffffff",
          "blockHash": "0x6a5c6ab96094a76ff89a92c53f0ae080b9cd1d8bdf7bd28e028ec9c80e719f7c",
          "blockNumber": "0x9f6712",
          "blockTimestamp": "0x69b59f74",
          "transactionHash": "0x59bad2226e0ea3c55141d5ea17a5335a54915302b50db8d6215e515f2d0b4f91",
          "transactionIndex": "0xa8",
          "logIndex": "0x136",
          "removed": false
        }
      ],
      "logsBloom": "0x00000000200000000000020000040000000000000002000000000000000000000000000000000000000000000000000000000000000000000000000000200000000000000000000000000000000000000000000000000000001000000000000000000000000000000000000000000000000000000000000000000000000000000000000000000000000000000000800000000000000000000000000000000000020000000000000000080000000000000000000000000000000000000000000004000000000000000000000000000000000000000000000000000000000000000010010000000000000000000000000000000000000000000000000000000000",
      "type": "0x0",
      "transactionHash": "0x59bad2226e0ea3c55141d5ea17a5335a54915302b50db8d6215e515f2d0b4f91",
      "transactionIndex": "0xa8",
      "blockHash": "0x6a5c6ab96094a76ff89a92c53f0ae080b9cd1d8bdf7bd28e028ec9c80e719f7c",
      "blockNumber": "0x9f6712",
      "gasUsed": "0xb888",
      "effectiveGasPrice": "0xf4249",
      "from": "0xe5fe3784dee65a9438963e5c37aeb6d114604de0",
      "to": "0xcbb50dc59f9a67e99dd216651accaedba56ee625",
      "contractAddress": null
    },
    {
      "status": "0x1",
      "cumulativeGasUsed": "0x108573a",
      "logs": [
        {
          "address": "0xb7f9c55c8789107b52f400bcdb151a562f355977",
          "topics": [
            "0x8c5be1e5ebec7d5bd14f71427d1e84f3dd0314c0f7b2291e5b200ac8c7c3b925",
            "0x000000000000000000000000e5fe3784dee65a9438963e5c37aeb6d114604de0",
            "0x0000000000000000000000009fdc0123b336f5714891afd344cb8085b527aec7"
          ],
          "data": "0xffffffffffffffffffffffffffffffffffffffffffffffffffffffffffffffff",
          "blockHash": "0x59f10967d5dd1c788de442be4377b130fee6ff657a5b19f3a842b074b3414a58",
          "blockNumber": "0x9f6713",
          "blockTimestamp": "0x69b59f80",
          "transactionHash": "0x611d60fc6cd95f9f085d9377b11460c5409e6fa5bcb9daaf6679cdf4c3e952e3",
          "transactionIndex": "0x99",
          "logIndex": "0x18d",
          "removed": false
        }
      ],
      "logsBloom": "0x00000000200000000000020000000000000000000002000000000000000000000000000000000000000000000000000000000000000000000000000000200000000000000000000000000000000000000000000000000000000000000000000000000000000000000000000000000000000000000000000000000000000000000000000000000000000000000010000000000000000000001000000000000000020000000000000000080000000000000000000000000000000000000000000004000000000000000000000000000000000000000080000000000000000000000010010000000000000000000000000000000000000000000000000000000000",
      "type": "0x0",
      "transactionHash": "0x611d60fc6cd95f9f085d9377b11460c5409e6fa5bcb9daaf6679cdf4c3e952e3",
      "transactionIndex": "0x99",
      "blockHash": "0x59f10967d5dd1c788de442be4377b130fee6ff657a5b19f3a842b074b3414a58",
      "blockNumber": "0x9f6713",
      "gasUsed": "0xb888",
      "effectiveGasPrice": "0xf4249",
      "from": "0xe5fe3784dee65a9438963e5c37aeb6d114604de0",
      "to": "0xb7f9c55c8789107b52f400bcdb151a562f355977",
      "contractAddress": null
    },
    {
      "status": "0x1",
      "cumulativeGasUsed": "0xd1b20b",
      "logs": [
        {
          "address": "0xcbb50dc59f9a67e99dd216651accaedba56ee625",
          "topics": [
            "0xddf252ad1be2c89b69c2b068fc378daa952ba7f163c4a11628f55a4df523b3ef",
            "0x000000000000000000000000e5fe3784dee65a9438963e5c37aeb6d114604de0",
            "0x00000000000000000000000085d73cb02f603e48b3d4007c7dc3b80923f35312"
          ],
          "data": "0x0000000000000000000000000000000000000000000000056bc75e2d630ffffb",
          "blockHash": "0x6920c2b126daf23e4089814f312bcc702fd6d085a3c6051ce40a0df6be90ed98",
          "blockNumber": "0x9f6714",
          "blockTimestamp": "0x69b59f8c",
          "transactionHash": "0x480214bcad3452f795da8ae1000710aa5fd82cc47d5608df56afc380567cb5dd",
          "transactionIndex": "0xa2",
          "logIndex": "0x11b",
          "removed": false
        },
        {
          "address": "0xb7f9c55c8789107b52f400bcdb151a562f355977",
          "topics": [
            "0xddf252ad1be2c89b69c2b068fc378daa952ba7f163c4a11628f55a4df523b3ef",
            "0x000000000000000000000000e5fe3784dee65a9438963e5c37aeb6d114604de0",
            "0x00000000000000000000000085d73cb02f603e48b3d4007c7dc3b80923f35312"
          ],
          "data": "0x0000000000000000000000000000000000000000000000056bc75e2d630ffffb",
          "blockHash": "0x6920c2b126daf23e4089814f312bcc702fd6d085a3c6051ce40a0df6be90ed98",
          "blockNumber": "0x9f6714",
          "blockTimestamp": "0x69b59f8c",
          "transactionHash": "0x480214bcad3452f795da8ae1000710aa5fd82cc47d5608df56afc380567cb5dd",
          "transactionIndex": "0xa2",
          "logIndex": "0x11c",
          "removed": false
        },
        {
          "address": "0x85d73cb02f603e48b3d4007c7dc3b80923f35312",
          "topics": [
            "0x7a53080ba414158be7ec69b987b5fb7d07dee101fe85488f0853ae16239d0bde",
            "0x0000000000000000000000009fdc0123b336f5714891afd344cb8085b527aec7",
            "0xfffffffffffffffffffffffffffffffffffffffffffffffffffffffffff2764c",
            "0x00000000000000000000000000000000000000000000000000000000000d89b4"
          ],
          "data": "0x0000000000000000000000009fdc0123b336f5714891afd344cb8085b527aec70000000000000000000000000000000000000000000000056bc75e2d631000000000000000000000000000000000000000000000000000056bc75e2d630ffffb0000000000000000000000000000000000000000000000056bc75e2d630ffffb",
          "blockHash": "0x6920c2b126daf23e4089814f312bcc702fd6d085a3c6051ce40a0df6be90ed98",
          "blockNumber": "0x9f6714",
          "blockTimestamp": "0x69b59f8c",
          "transactionHash": "0x480214bcad3452f795da8ae1000710aa5fd82cc47d5608df56afc380567cb5dd",
          "transactionIndex": "0xa2",
          "logIndex": "0x11d",
          "removed": false
        }
      ],
      "logsBloom": "0x00000000200000020000920000040000000000000002000000000000000000000000000000000000002000000000000000000000000000000000000000080000000000000000000000000008000000000000000000000000001000000080000000000000000000000000000000400000000000000000000000000010000000000000000008000000000000000010800100000000000000001001002000000000000200800000000000080000000000020000000000000000000000000000000004000002000000000000080000000000000000000080000000000000000000000000010000000000000000000000000000000000000000000000000000000000",
      "type": "0x0",
      "transactionHash": "0x480214bcad3452f795da8ae1000710aa5fd82cc47d5608df56afc380567cb5dd",
      "transactionIndex": "0xa2",
      "blockHash": "0x6920c2b126daf23e4089814f312bcc702fd6d085a3c6051ce40a0df6be90ed98",
      "blockNumber": "0x9f6714",
      "gasUsed": "0x415d6",
      "effectiveGasPrice": "0xf4249",
      "from": "0xe5fe3784dee65a9438963e5c37aeb6d114604de0",
      "to": "0x9fdc0123b336f5714891afd344cb8085b527aec7",
      "contractAddress": null
    }
  ],
  "libraries": [],
  "pending": [],
  "returns": {},
  "timestamp": 1773510540921,
  "chain": 11155111,
  "commit": "505260c"
}