{
  "transactions": [
    {
      "hash": "0xc1d31ab9f886c5c2b97d942c7e98402084d9f52e0d8bce6dff41afac14beab09",
      "transactionType": "CALL",
      "contractName": null,
      "contractAddress": "0xb7f9c55c8789107b52f400bcdb151a562f355977",
      "function": "mint(address,uint256)",
      "arguments": [
        "0xE5fE3784dEe65A9438963E5c37AEB6D114604de0",
        "10000000000000000000"
      ],
      "transaction": {
        "from": "0xe5fe3784dee65a9438963e5c37aeb6d114604de0",
        "to": "0xb7f9c55c8789107b52f400bcdb151a562f355977",
        "gas": "0xc65d",
        "value": "0x0",
        "input": "0x40c10f19000000000000000000000000e5fe3784dee65a9438963e5c37aeb6d114604de00000000000000000000000000000000000000000000000008ac7230489e80000",
        "nonce": "0x2e",
        "chainId": "0xaa36a7"
      },
      "additionalContracts": [],
      "isFixedGasLimit": false
    },
    {
      "hash": "0xc7932dacac447502b337bfdfe04c5b6630ff64d9f65958d19082484b6c53aa90",
      "transactionType": "CALL",
      "contractName": null,
      "contractAddress": "0xcbb50dc59f9a67e99dd216651accaedba56ee625",
      "function": "mint(address,uint256)",
      "arguments": [
        "0xE5fE3784dEe65A9438963E5c37AEB6D114604de0",
        "20000000000000000000000"
      ],
      "transaction": {
        "from": "0xe5fe3784dee65a9438963e5c37aeb6d114604de0",
        "to": "0xcbb50dc59f9a67e99dd216651accaedba56ee625",
        "gas": "0xc681",
        "value": "0x0",
        "input": "0x40c10f19000000000000000000000000e5fe3784dee65a9438963e5c37aeb6d114604de000000000000000000000000000000000000000000000043c33c1937564800000",
        "nonce": "0x2f",
        "chainId": "0xaa36a7"
      },
      "additionalContracts": [],
      "isFixedGasLimit": false
    },
    {
      "hash": "0xc59b0f21526b37d723e8a651a63254420e557ba91a1efa92f444339448872249",
      "transactionType": "CALL",
      "contractName": null,
      "contractAddress": "0xb7f9c55c8789107b52f400bcdb151a562f355977",
      "function": "approve(address,uint256)",
      "arguments": [
        "0x6e5A9Fb05Bfaa2de92745336fA999B07924aE2d0",
        "115792089237316195423570985008687907853269984665640564039457584007913129639935"
      ],
      "transaction": {
        "from": "0xe5fe3784dee65a9438963e5c37aeb6d114604de0",
        "to": "0xb7f9c55c8789107b52f400bcdb151a562f355977",
        "gas": "0x9382",
        "value": "0x0",
        "input": "0x095ea7b30000000000000000000000006e5a9fb05bfaa2de92745336fa999b07924ae2d0ffffffffffffffffffffffffffffffffffffffffffffffffffffffffffffffff",
        "nonce": "0x30",
        "chainId": "0xaa36a7"
      },
      "additionalContracts": [],
      "isFixedGasLimit": false
    },
    {
      "hash": "0x5861f5c48d8cc8fbc9c670c28567eaa96d63e8a35bcb25f7d84c3d174bee368d",
      "transactionType": "CALL",
      "contractName": null,
      "contractAddress": "0xcbb50dc59f9a67e99dd216651accaedba56ee625",
      "function": "approve(address,uint256)",
      "arguments": [
        "0x6e5A9Fb05Bfaa2de92745336fA999B07924aE2d0",
        "115792089237316195423570985008687907853269984665640564039457584007913129639935"
      ],
      "transaction": {
        "from": "0xe5fe3784dee65a9438963e5c37aeb6d114604de0",
        "to": "0xcbb50dc59f9a67e99dd216651accaedba56ee625",
        "gas": "0x9382",
        "value": "0x0",
        "input": "0x095ea7b30000000000000000000000006e5a9fb05bfaa2de92745336fa999b07924ae2d0ffffffffffffffffffffffffffffffffffffffffffffffffffffffffffffffff",
        "nonce": "0x31",
        "chainId": "0xaa36a7"
      },
      "additionalContracts": [],
      "isFixedGasLimit": false
    },
    {
      "hash": "0x8952284822fae0c49494232aa3c8e88e155b6728714e1a37e94de102d9fd64de",
      "transactionType": "CALL",
      "contractName": null,
      "contractAddress": "0x6e5a9fb05bfaa2de92745336fa999b07924ae2d0",
      "function": "mint(address,int24,int24,uint128,bytes)",
      "arguments": [
        "0xb5fAD4ff7D1B7463200C650F50854A0D9E6f9551",
        "-1000",
        "1000",
        "100000000000000000000",
        "0x000000000000000000000000cbb50dc59f9a67e99dd216651accaedba56ee625000000000000000000000000b7f9c55c8789107b52f400bcdb151a562f355977000000000000000000000000e5fe3784dee65a9438963e5c37aeb6d114604de0"
      ],
      "transaction": {
        "from": "0xe5fe3784dee65a9438963e5c37aeb6d114604de0",
        "to": "0x6e5a9fb05bfaa2de92745336fa999b07924ae2d0",
        "gas": "0x3cde4",
        "value": "0x0",
        "input": "0x3c8a7d8d000000000000000000000000b5fad4ff7d1b7463200c650f50854a0d9e6f9551fffffffffffffffffffffffffffffffffffffffffffffffffffffffffffffc1800000000000000000000000000000000000000000000000000000000000003e80000000000000000000000000000000000000000000000056bc75e2d6310000000000000000000000000000000000000000000000000000000000000000000a00000000000000000000000000000000000000000000000000000000000000060000000000000000000000000cbb50dc59f9a67e99dd216651accaedba56ee625000000000000000000000000b7f9c55c8789107b52f400bcdb151a562f355977000000000000000000000000e5fe3784dee65a9438963e5c37aeb6d114604de0",
        "nonce": "0x32",
        "chainId": "0xaa36a7"
      },
      "additionalContracts": [],
      "isFixedGasLimit": false
    }
  ],
  "receipts": [
    {
      "status": "0x1",
      "cumulativeGasUsed": "0xaf0c91",
      "logs": [
        {
          "address": "0xb7f9c55c8789107b52f400bcdb151a562f355977",
          "topics": [
            "0xddf252ad1be2c89b69c2b068fc378daa952ba7f163c4a11628f55a4df523b3ef",
            "0x0000000000000000000000000000000000000000000000000000000000000000",
            "0x000000000000000000000000e5fe3784dee65a9438963e5c37aeb6d114604de0"
          ],
          "data": "0x0000000000000000000000000000000000000000000000008ac7230489e80000",
          "blockHash": "0x080e0ee4fa7bf29fa74742467fa606b6c6e76365ddd9db6813accca4070b8a74",
          "blockNumber": "0x9f5801",
          "blockTimestamp": "0x69b4cc18",
          "transactionHash": "0xc1d31ab9f886c5c2b97d942c7e98402084d9f52e0d8bce6dff41afac14beab09",
          "transactionIndex": "0x7b",
          "logIndex": "0xde",
          "removed": false
        }
      ],
      "logsBloom": "0x00000000000000000000000000000000000000000002000000000000000000000000000000000000000000000000000000000000000000000000000000000000000000000000000000000008000000000000000000000000000000000000000000000000020000000000000000000800000000000000000000000010000000000000000000000000000000000010000000000000000000001000000000000000000000000000000000080000000000000000000000000000000000000000000000000002000000000000000000000000000000000080000000000000000020000000010000000000000000000000000000000000000000000000000000000000",
      "type": "0x2",
      "transactionHash": "0xc1d31ab9f886c5c2b97d942c7e98402084d9f52e0d8bce6dff41afac14beab09",
      "transactionIndex": "0x7b",
      "blockHash": "0x080e0ee4fa7bf29fa74742467fa606b6c6e76365ddd9db6813accca4070b8a74",
      "blockNumber": "0x9f5801",
      "gasUsed": "0x87a3",
      "effectiveGasPrice": "0xf4249",
      "from": "0xe5fe3784dee65a9438963e5c37aeb6d114604de0",
      "to": "0xb7f9c55c8789107b52f400bcdb151a562f355977",
      "contractAddress": null
    },
    {
      "status": "0x1",
      "cumulativeGasUsed": "0x7ad610",
      "logs": [
        {
          "address": "0xcbb50dc59f9a67e99dd216651accaedba56ee625",
          "topics": [
            "0xddf252ad1be2c89b69c2b068fc378daa952ba7f163c4a11628f55a4df523b3ef",
            "0x0000000000000000000000000000000000000000000000000000000000000000",
            "0x000000000000000000000000e5fe3784dee65a9438963e5c37aeb6d114604de0"
          ],
          "data": "0x00000000000000000000000000000000000000000000043c33c1937564800000",
          "blockHash": "0x7f69a277120c8d444767cd3daa20c8b04b50f912f177f5e87ffbfea60ff5d5a5",
          "blockNumber": "0x9f5802",
          "blockTimestamp": "0x69b4cc24",
          "transactionHash": "0xc7932dacac447502b337bfdfe04c5b6630ff64d9f65958d19082484b6c53aa90",
          "transactionIndex": "0x48",
          "logIndex": "0xa8",
          "removed": false
        }
      ],
      "logsBloom": "0x00000000000000000000000000040000000000000002000000000000000000000000000000000000000000000000000000000000000000000000000000000000000000000000000000000008000000000000000000000000001000000000000000000000020000000000000000000800000000000000000000000010000000000000000000000000000000000000800000000000000000000000000000000000000000000000000000080000000000000000000000000000000000000000000000000002000000000000000000000000000000000000000000000000000020000000010000000000000000000000000000000000000000000000000000000000",
      "type": "0x2",
      "transactionHash": "0xc7932dacac447502b337bfdfe04c5b6630ff64d9f65958d19082484b6c53aa90",
      "transactionIndex": "0x48",
      "blockHash": "0x7f69a277120c8d444767cd3daa20c8b04b50f912f177f5e87ffbfea60ff5d5a5",
      "blockNumber": "0x9f5802",
      "gasUsed": "0x87bb",
      "effectiveGasPrice": "0xf4249",
      "from": "0xe5fe3784dee65a9438963e5c37aeb6d114604de0",
      "to": "0xcbb50dc59f9a67e99dd216651accaedba56ee625",
      "contractAddress": null
    },
    {
      "status": "0x1",
      "cumulativeGasUsed": "0x66bd3e",
      "logs": [
        {
          "address": "0xb7f9c55c8789107b52f400bcdb151a562f355977",
          "topics": [
            "0x8c5be1e5ebec7d5bd14f71427d1e84f3dd0314c0f7b2291e5b200ac8c7c3b925",
            "0x000000000000000000000000e5fe3784dee65a9438963e5c37aeb6d114604de0",
            "0x0000000000000000000000006e5a9fb05bfaa2de92745336fa999b07924ae2d0"
          ],
          "data": "0xffffffffffffffffffffffffffffffffffffffffffffffffffffffffffffffff",
          "blockHash": "0x0386bbbec031685571de4d4220204a66c6e3fb36c24dac0af7e28fd810552849",
          "blockNumber": "0x9f5803",
          "blockTimestamp": "0x69b4cc30",
          "transactionHash": "0xc59b0f21526b37d723e8a651a63254420e557ba91a1efa92f444339448872249",
          "transactionIndex": "0x56",
          "logIndex": "0x76",
          "removed": false
        }
      ],
      "logsBloom": "0x00000000000000000000000000000000000000000002000000000000000000000000080000000000000000000000000000000000000000000000000000200000000000000000000000000000000000000000000000000000000000000000000000000000000000000000000000000000000000000000000000000000000000000000000000000000000000000010000000000000000000001000000000000000020000000000000000080000000000000000000000000000000000000000000000000000000000000000000000000000000000000080000000000000004000000010010000000000080000000000000000000000000000000000000000000000",
      "type": "0x2",
      "transactionHash": "0xc59b0f21526b37d723e8a651a63254420e557ba91a1efa92f444339448872249",
      "transactionIndex": "0x56",
      "blockHash": "0x0386bbbec031685571de4d4220204a66c6e3fb36c24dac0af7e28fd810552849",
      "blockNumber": "0x9f5803",
      "gasUsed": "0x6acc",
      "effectiveGasPrice": "0xf4249",
      "from": "0xe5fe3784dee65a9438963e5c37aeb6d114604de0",
      "to": "0xb7f9c55c8789107b52f400bcdb151a562f355977",
      "contractAddress": null
    },
    {
      "status": "0x1",
      "cumulativeGasUsed": "0xdb1201",
      "logs": [
        {
          "address": "0xcbb50dc59f9a67e99dd216651accaedba56ee625",
          "topics": [
            "0x8c5be1e5ebec7d5bd14f71427d1e84f3dd0314c0f7b2291e5b200ac8c7c3b925",
            "0x000000000000000000000000e5fe3784dee65a9438963e5c37aeb6d114604de0",
            "0x0000000000000000000000006e5a9fb05bfaa2de92745336fa999b07924ae2d0"
          ],
          "data": "0xffffffffffffffffffffffffffffffffffffffffffffffffffffffffffffffff",
          "blockHash": "0xe5898c4875d1085ccc48755dc7596f762a9187bcd7a1e098089d4282f2f4a37d",
          "blockNumber": "0x9f5804",
          "blockTimestamp": "0x69b4cc3c",
          "transactionHash": "0x5861f5c48d8cc8fbc9c670c28567eaa96d63e8a35bcb25f7d84c3d174bee368d",
          "transactionIndex": "0x5d",
          "logIndex": "0x76",
          "removed": false
        }
      ],
      "logsBloom": "0x00000000000000000000000000040000000000000002000000000000000000000000080000000000000000000000000000000000000000000000000000200000000000000000000000000000000000000000000000000000001000000000000000000000000000000000000000000000000000000000000000000000000000000000000000000000000000000000800000000000000000000000000000000000020000000000000000080000000000000000000000000000000000000000000000000000000000000000000000000000000000000000000000000000004000000010010000000000080000000000000000000000000000000000000000000000",
      "type": "0x2",
      "transactionHash": "0x5861f5c48d8cc8fbc9c670c28567eaa96d63e8a35bcb25f7d84c3d174bee368d",
      "transactionIndex": "0x5d",
      "blockHash": "0xe5898c4875d1085ccc48755dc7596f762a9187bcd7a1e098089d4282f2f4a37d",
      "blockNumber": "0x9f5804",
      "gasUsed": "0x6acc",
      "effectiveGasPrice": "0xf4249",
      "from": "0xe5fe3784dee65a9438963e5c37aeb6d114604de0",
      "to": "0xcbb50dc59f9a67e99dd216651accaedba56ee625",
      "contractAddress": null
    },
    {
      "status": "0x1",
      "cumulativeGasUsed": "0x9be125",
      "logs": [
        {
          "address": "0xcbb50dc59f9a67e99dd216651accaedba56ee625",
          "topics": [
            "0xddf252ad1be2c89b69c2b068fc378daa952ba7f163c4a11628f55a4df523b3ef",
            "0x000000000000000000000000e5fe3784dee65a9438963e5c37aeb6d114604de0",
            "0x000000000000000000000000b5fad4ff7d1b7463200c650f50854a0d9e6f9551"
          ],
          "data": "0x00000000000000000000000000000000000000000000000043adf1bb44d1ba04",
          "blockHash": "0x59086eac298d1b4f9241040fe017463894c6e0c4d53e1f3e4a5d19d6c4cf735b",
          "blockNumber": "0x9f5805",
          "blockTimestamp": "0x69b4cc48",
          "transactionHash": "0x8952284822fae0c49494232aa3c8e88e155b6728714e1a37e94de102d9fd64de",
          "transactionIndex": "0x46",
          "logIndex": "0x8f",
          "removed": false
        },
        {
          "address": "0xb7f9c55c8789107b52f400bcdb151a562f355977",
          "topics": [
            "0xddf252ad1be2c89b69c2b068fc378daa952ba7f163c4a11628f55a4df523b3ef",
            "0x000000000000000000000000e5fe3784dee65a9438963e5c37aeb6d114604de0",
            "0x000000000000000000000000b5fad4ff7d1b7463200c650f50854a0d9e6f9551"
          ],
          "data": "0x00000000000000000000000000000000000000000000000043adf1bb44d1ba04",
          "blockHash": "0x59086eac298d1b4f9241040fe017463894c6e0c4d53e1f3e4a5d19d6c4cf735b",
          "blockNumber": "0x9f5805",
          "blockTimestamp": "0x69b4cc48",
          "transactionHash": "0x8952284822fae0c49494232aa3c8e88e155b6728714e1a37e94de102d9fd64de",
          "transactionIndex": "0x46",
          "logIndex": "0x90",
          "removed": false
        },
        {
          "address": "0xb5fad4ff7d1b7463200c650f50854a0d9e6f9551",
          "topics": [
            "0x7a53080ba414158be7ec69b987b5fb7d07dee101fe85488f0853ae16239d0bde",
            "0x0000000000000000000000006e5a9fb05bfaa2de92745336fa999b07924ae2d0",
            "0xfffffffffffffffffffffffffffffffffffffffffffffffffffffffffffffc18",
            "0x00000000000000000000000000000000000000000000000000000000000003e8"
          ],
          "data": "0x0000000000000000000000006e5a9fb05bfaa2de92745336fa999b07924ae2d00000000000000000000000000000000000000000000000056bc75e2d6310000000000000000000000000000000000000000000000000000043adf1bb44d1ba0400000000000000000000000000000000000000000000000043adf1bb44d1ba04",
          "blockHash": "0x59086eac298d1b4f9241040fe017463894c6e0c4d53e1f3e4a5d19d6c4cf735b",
          "blockNumber": "0x9f5805",
          "blockTimestamp": "0x69b4cc48",
          "transactionHash": "0x8952284822fae0c49494232aa3c8e88e155b6728714e1a37e94de102d9fd64de",
          "transactionIndex": "0x46",
          "logIndex": "0x91",
          "removed": false
        }
      ],
      "logsBloom": "0x00080000000002000008100020040000000000000006000000000000000000000000080000000000000000000000000000000000000000000000000000400000000004000000000000000008000000000000000000000000001000000000000000000000000000000000000000000000000000000000000000000010000000000000000208000000000400000010800000000000000040001000000000000000000000000000000000080000000000000000000000000000000000000000000000000002000200000000080000000000000000000080000000000000004000000000010000000000080000000000020000000000000000000000000000000000",
      "type": "0x2",
      "transactionHash": "0x8952284822fae0c49494232aa3c8e88e155b6728714e1a37e94de102d9fd64de",
      "transactionIndex": "0x46",
      "blockHash": "0x59086eac298d1b4f9241040fe017463894c6e0c4d53e1f3e4a5d19d6c4cf735b",
      "blockNumber": "0x9f5805",
      "gasUsed": "0x299e9",
      "effectiveGasPrice": "0xf4249",
      "from": "0xe5fe3784dee65a9438963e5c37aeb6d114604de0",
      "to": "0x6e5a9fb05bfaa2de92745336fa999b07924ae2d0",
      "contractAddress": null
    }
  ],
  "libraries": [],
  "pending": [],
  "returns": {},
  "timestamp": 1773456457759,
  "chain": 11155111,
  "commit": "e633b1b"
}